{
  "_format": "hh-sol-artifact-1",
  "contractName": "Hello",
  "sourceName": "contracts/Hello.sol",
  "abi": [
    {
      "inputs": [],
      "name": "hello",
      "outputs": [
        {
          "internalType": "string",
          "name": "_hello",
          "type": "string"
        }
      ],
      "stateMutability": "pure",
      "type": "function"
    },
    {
      "inputs": [],
      "name": "logValue",
      "outputs": [
        {
          "internalType": "uint8",
          "name": "x",
          "type": "uint8"
        }
      ],
      "stateMutability": "view",
      "type": "function"
    }
  ],
  "bytecode": "0x608060405234801561001057600080fd5b506102e8806100206000396000f3fe608060405234801561001057600080fd5b50600436106100365760003560e01c8063017f425a1461003b57806319ff1d2114610059575b600080fd5b610043610077565b60405161005091906101a8565b60405180910390f35b61006161008d565b60405161006e919061025c565b60405180910390f35b60006017905061008a601760ff166100ca565b90565b60606040518060400160405280600581526020017f48656c6c6f000000000000000000000000000000000000000000000000000000815250905090565b610160816040516024016100de9190610297565b6040516020818303038152906040527ff5b1bba9000000000000000000000000000000000000000000000000000000007bffffffffffffffffffffffffffffffffffffffffffffffffffffffff19166020820180517bffffffffffffffffffffffffffffffffffffffffffffffffffffffff8381831617835250505050610163565b50565b60008151905060006a636f6e736f6c652e6c6f679050602083016000808483855afa5050505050565b600060ff82169050919050565b6101a28161018c565b82525050565b60006020820190506101bd6000830184610199565b92915050565b600081519050919050565b600082825260208201905092915050565b60005b838110156101fd5780820151818401526020810190506101e2565b8381111561020c576000848401525b50505050565b6000601f19601f8301169050919050565b600061022e826101c3565b61023881856101ce565b93506102488185602086016101df565b61025181610212565b840191505092915050565b600060208201905081810360008301526102768184610223565b905092915050565b6000819050919050565b6102918161027e565b82525050565b60006020820190506102ac6000830184610288565b9291505056fea2646970667358221220aa4c65c06ea8a64593a05f235b035043ac4afa1dc5d2eb27deb27b39a7f49bab64736f6c63430008080033",
  "linkReferences": {},
  "deployedLinkReferences": {}
}